:100000000C942F000C9439000C9439000C94390096
:100010000C9439000C9439000C9439000C9439007C
:100020000C9439000C9439000C9439000C9439006C
:100030000C9439000C9439000C9439000C9439005C
:100040000C9439000C9439000C9439000C9439004C
:100050000C9439003F065B4F666D7D077F6F11245E
:100060001FBECFE5D4E0DEBFCDBF0E943D000C94A3
:1000700008010C940000089508956F927F928F926A
:100080009F92AF92BF92CF92DF92EF92FF920F9327
:100090001F93CF93DF938FEF81BB8FE084BB8EEFF5
:1000A00085BB8EB583608EBD1DBC1CBC83B78360D1
:1000B00083BF12BE88249924EE24FF24CC24DD249F
:1000C000AA24BB2401E010E0E7E5F0E074909EEF85
:1000D000692E82B78B3950F10830110530F4000FCA
:1000E000111F802F809585BB03C065BA01E010E029
:1000F00072BA00FF05C0F401EC5AFF4FE49114C03E
:1001000001FF05C0F701EC5AFF4FE4910DC002FF5B
:1001100005C0F601EC5AFF4FE49106C003FF05C08D
:10012000F501EC5AFF4FE491E2BB12BE8CB59DB5D0
:1001300088559B4170F2F4013196CF016AE070E07E
:100140000E94F4009B012E0D3F1DCF016AE070E07C
:100150000E94F400EC014C01C9016AE070E00E94C9
:10016000F400FB01EC0DFD1DC9016AE070E00E9486
:10017000F4007C01CF016AE070E00E94F400A60E5A
:10018000B71ECF016AE070E00E94F4009C016C0190
:1001900040E050E089E0E816F10411F441E050E05D
:1001A00080E090E0299711F481E090E04823592302
:1001B00080E099E0A916B10409F481E090E02930CB
:1001C000310509F491E0892390E048235923452B18
:1001D00041F088249924EE24FF24CC24DD24AA2491
:1001E000BB241DBC1CBC75CFAA1BBB1B51E107C0A7
:1001F000AA1FBB1FA617B70710F0A61BB70B881FB7
:10020000991F5A95A9F780959095BC01CD01089545
:04021000F894FFCF90
:00000001FF
