:100000000C942A000C9434000C9434000C943400AA
:100010000C9434000C9434000C9434000C94340090
:100020000C9434000C9434000C9434000C94340080
:100030000C9434000C9434000C9434000C94340070
:100040000C9434000C9434000C9434000C94340060
:100050000C94340011241FBECFE5D4E0DEBFCDBF29
:100060000E9449000C94BF000C9400008BBB88B325
:10007000836088BB88EA91E60197F1F7C0980895FC
:100080008BBBC198C09A82EE94E00197F1F7C098BB
:1000900008958FEF8ABB83E087BB88E30E9440000E
:1000A00086E00E9440008EE00E94400081E00E94B5
:1000B000400080E80E94400088E48BBB88B38360E6
:1000C00088BB28EA31E6C9010197F1F7C09885E4B9
:1000D0008BBB88B3836088BBC9010197F1F7C098D7
:1000E0009CE49BBB88B3836088BBF9013197F1F72F
:1000F000C0989BBB88B3836088BBF9013197F1F747
:10010000C0984FE44BBB88B3836088BBF90131973B
:10011000F1F7C09880E28BBB88B3836088BBF9019C
:100120003197F1F7C09887E58BBB88B3836088BBB4
:10013000F9013197F1F7C0984BBB88B3836088BB56
:10014000F9013197F1F7C09882E58BBB88B38360E2
:1001500088BBF9013197F1F7C0989BBB88B38360E6
:1001600088BBC9010197F1F7C09884E48BBB88B3C1
:10017000836088BBC9010197F1F7C098FFCFF8945D
:02018000FFCFAF
:00000001FF
