:100000000C942F000C9439000C9439000C94390096
:100010000C9439000C9439000C9439000C9439007C
:100020000C9439000C9439000C9439000C9439006C
:100030000C9439000C9439000C9439000C9439005C
:100040000C9439000C9439000C9439000C9439004C
:100050000C9439003F065B4F666D7D077F6F11245E
:100060001FBECFE5D4E0DEBFCDBF0E943B000C94A5
:1000700086000C9400008FEF81BBE4E5F0E0E49192
:10008000E2BB8EB582608EBD8EB581608EBD1DBC1B
:100090001CBC20E030E08CB59DB588559B41D8F361
:1000A0002F5F3F4FC9016AE070E00E945F00FC01D2
:1000B000EC5AFF4FE491E2BB1DBC1CBCECCF97FB9C
:1000C000092E07260AD077FD04D00CD006D00020D8
:1000D0001AF4709561957F4F0895F6F79095819584
:1000E0009F4F0895AA1BBB1B51E107C0AA1FBB1F4E
:1000F000A617B70710F0A61BB70B881F991F5A95B4
:10010000A9F780959095BC01CD010895F894FFCF93
:00000001FF
