:100000000C942F000C9439000C9439000C94390096
:100010000C9439000C9439000C9439000C9439007C
:100020000C9439000C9439000C9439000C9439006C
:100030000C9439000C9439000C9439000C9439005C
:100040000C9439000C9439000C9439000C9439004C
:100050000C9439003F065B4F666D7D077F6F11245E
:100060001FBECFE5D4E0DEBFCDBF0E9444000C949C
:1000700091000C9400008EB582608EBD8EB58160BB
:100080008EBD1DBC1CBC08958FEF81BB8FE084BB6F
:10009000E4E5F0E0E491E2BB8EB582608EBD8EB502
:1000A00081608EBD1DBC1CBC20E030E08CB59DB5D0
:1000B00089509D43D8F32F5F3F4FC9016AE070E03C
:1000C0000E946A00FC01EC5AFF4FE491E2BB1DBCA8
:1000D0001CBCECCF97FB092E07260AD077FD04D075
:1000E0000CD006D000201AF4709561957F4F0895CA
:1000F000F6F7909581959F4F0895AA1BBB1B51E180
:1001000007C0AA1FBB1FA617B70710F0A61BB70B87
:10011000881F991F5A95A9F780959095BC01CD012C
:060120000895F894FFCFE2
:00000001FF
