:100000000C942C000C9449000C9449000C94490069
:100010000C9449000C9449000C9449000C9449003C
:100020000C9449000C94AB000C9449000C944900CA
:100030000C9449000C9449000C9449000C9449001C
:100040000C9449000C9449000C9449000C9449000C
:100050000C9449000905060A11241FBECFE5D4E01F
:10006000DEBFCDBF10E0A0E6B0E0ECE7F1E002C0FB
:1000700005900D92A236B107D9F710E0A2E6B0E0E4
:1000800001C01D92A536B107E1F70E9454000C94FF
:10009000BC000C94000083B7836083BF12BE89B795
:1000A000816089BF789408950E944B008FE08ABBDD
:1000B0001BBA81E084BB84E085BB41E023E030E0F3
:1000C00080916000882311F0A89A01C0A8989A999D
:1000D00007C0809160008427809360009A9BFECFC8
:1000E000809162008D3360F312BE82B78A30E8F3EC
:1000F000E0916300F0916400EC5AFF4FE491EBBB98
:1001000012BE1092620080916000882331F08091CD
:10011000630090916400019705C080916300909105
:100120006400019690936400809363008091630063
:1001300090916400049724F0109264001092630080
:10014000809163009091640097FFBACF3093640070
:1001500020936300B5CF1F920F920FB60F92112418
:100160008F93809162008F5F809362008F910F90D8
:0C0170000FBE0F901F901895F894FFCF61
:02017C00010080
:00000001FF
