:100000000C942C000C943E000C943E000C943E008A
:100010000C943E000C943E000C943E000C943E0068
:100020000C943E000C9472000C943E000C943E0024
:100030000C943E000C943E000C943E000C943E0048
:100040000C943E000C943E000C943E000C943E0038
:100050000C943E000905060A11241FBECFE5D4E02A
:10006000DEBFCDBF10E0A0E6B0E001C01D92A23619
:10007000B107E1F70E9449000C9483000C94000042
:1000800083B7836083BF12BE89B7816089BF7894CC
:1000900008950E9440008FE08ABB1BBA14BA84E026
:1000A00085BB8091600093B38230D8F392FDF9CF85
:1000B00012BE82B78237E8F3E0916100F0E0EC5ABB
:1000C000FF4FE491EBBB12BE109260008091610083
:1000D0008F5F8093610080916100843010F31092F3
:1000E0006100DFCF1F920F920FB60F9211248F93F2
:1000F000809160008F5F809360008F910F900FBEA2
:0A0100000F901F901895F894FFCFA0
:00000001FF
