:100000000C942F000C9441000C9441000C9441007E
:100010000C9441000C9441000C9441000C9441005C
:100020000C9441000C9441000C9441000C9441004C
:100030000C9441000C9441000C9441000C9441003C
:100040000C9441000C9441000C9441000C9441002C
:100050000C9441003031323334353637383911247D
:100060001FBECFE5D4E0DEBFCDBF10E0A0E6B0E01C
:1000700001C01D92A636B107E1F70E9463010C94FE
:10008000A4010C9400008BBB88B3836088BB82EE14
:1000900094E00197F1F7C09808958BBBC198C09A7E
:1000A00082EE94E00197F1F7C098089588E30E94EA
:1000B0004D0086E00E944D008EE00E944D0081E0E0
:1000C0000E944D0080E80E944D00089585B584602F
:1000D00085BD14BC089580916000909161000196E7
:1000E0009093610080936000CC9714F110926100AE
:1000F000109260008091620090916300019690934D
:10010000630080936200CC979CF010926300109281
:100110006200809164009091650001969093650063
:1001200080936400489724F0109265001092640058
:100130000895CF93DF9381E00E944D00C091640049
:10014000D0916500CA30D1058CF480E38BBB88B3B5
:10015000836088BB22EE34E0C9010197F1F7C098B3
:10016000CC5ADF4FFE0184918BBB1DC0CE016AE0EB
:1001700070E00E947D01FB01EC5AFF4FE491EBBB64
:1001800088B3836088BB22EE34E0C9010197F1F7A0
:10019000C098CE016AE070E00E947D01FC01EC5A3B
:1001A000FF4FE491EBBB88B3836088BBC901019723
:1001B000F1F7C0988AE38BBB88B3836088BBC2EE3B
:1001C000D4E0CE010197F1F7C09820916200309100
:1001D00063002A3031057CF480E38BBB88B38360F5
:1001E00088BBCE010197F1F7C0982C5A3F4FF90117
:1001F00084918BBB1BC0C9016AE070E00E947D0145
:10020000FB01EC5AFF4FE491EBBB88B3836088BBE2
:10021000CE010197F1F7C098C9016AE070E00E9431
:100220007D01FC01EC5AFF4FE491EBBB88B3836086
:1002300088BBCE010197F1F7C0988AE38BBB88B3E6
:10024000836088BBC2EED4E0CE010197F1F7C0987D
:1002500020916000309161002A3031057CF480E308
:100260008BBB88B3836088BBCE010197F1F7C09840
:100270002C5A3F4FF90184918BBB1BC0C9016AE026
:1002800070E00E947D01FB01EC5AFF4FE491EBBB53
:1002900088B3836088BBCE010197F1F7C098C9018C
:1002A0006AE070E00E947D01FC01EC5AFF4FE4918E
:1002B000EBBB88B3836088BBCE010197F1F7C09890
:1002C000DF91CF9108958FEF8ABB83E087BB0E94B7
:1002D000560085B5846085BD14BC20E030E084B54F
:1002E0008D3718F02F5F3F4F14BC22333105BCF31C
:1002F0000E946B000E949900F0CF97FB092E072601
:100300000AD077FD04D00CD006D000201AF47095E6
:1003100061957F4F0895F6F7909581959F4F0895C9
:10032000AA1BBB1B51E107C0AA1FBB1FA617B7071B
:1003300010F0A61BB70B881F991F5A95A9F7809537
:0C0340009095BC01CD010895F894FFCF0A
:00000001FF
